{
  "_format": "hh-sol-artifact-1",
  "contractName": "GridToken",
  "sourceName": "contracts/GridToken.sol",
  "abi": [
    {
      "inputs": [],
      "stateMutability": "nonpayable",
      "type": "constructor"
    },
    {
      "inputs": [
        {
          "internalType": "address",
          "name": "spender",
          "type": "address"
        },
        {
          "internalType": "uint256",
          "name": "allowance",
          "type": "uint256"
        },
        {
          "internalType": "uint256",
          "name": "needed",
          "type": "uint256"
        }
      ],
      "name": "ERC20InsufficientAllowance",
      "type": "error"
    },
    {
      "inputs": [
        {
          "internalType": "address",
          "name": "sender",
          "type": "address"
        },
        {
          "internalType": "uint256",
          "name": "balance",
          "type": "uint256"
        },
        {
          "internalType": "uint256",
          "name": "needed",
          "type": "uint256"
        }
      ],
      "name": "ERC20InsufficientBalance",
      "type": "error"
    },
    {
      "inputs": [
        {
          "internalType": "address",
          "name": "approver",
          "type": "address"
        }
      ],
      "name": "ERC20InvalidApprover",
      "type": "error"
    },
    {
      "inputs": [
        {
          "internalType": "address",
          "name": "receiver",
          "type": "address"
        }
      ],
      "name": "ERC20InvalidReceiver",
      "type": "error"
    },
    {
      "inputs": [
        {
          "internalType": "address",
          "name": "sender",
          "type": "address"
        }
      ],
      "name": "ERC20InvalidSender",
      "type": "error"
    },
    {
      "inputs": [
        {
          "internalType": "address",
          "name": "spender",
          "type": "address"
        }
      ],
      "name": "ERC20InvalidSpender",
      "type": "error"
    },
    {
      "inputs": [
        {
          "internalType": "address",
          "name": "owner",
          "type": "address"
        }
      ],
      "name": "OwnableInvalidOwner",
      "type": "error"
    },
    {
      "inputs": [
        {
          "internalType": "address",
          "name": "account",
          "type": "address"
        }
      ],
      "name": "OwnableUnauthorizedAccount",
      "type": "error"
    },
    {
      "anonymous": false,
      "inputs": [
        {
          "indexed": true,
          "internalType": "address",
          "name": "owner",
          "type": "address"
        },
        {
          "indexed": true,
          "internalType": "address",
          "name": "spender",
          "type": "address"
        },
        {
          "indexed": false,
          "internalType": "uint256",
          "name": "value",
          "type": "uint256"
        }
      ],
      "name": "Approval",
      "type": "event"
    },
    {
      "anonymous": false,
      "inputs": [
        {
          "indexed": true,
          "internalType": "address",
          "name": "previousOwner",
          "type": "address"
        },
        {
          "indexed": true,
          "internalType": "address",
          "name": "newOwner",
          "type": "address"
        }
      ],
      "name": "OwnershipTransferred",
      "type": "event"
    },
    {
      "anonymous": false,
      "inputs": [
        {
          "indexed": true,
          "internalType": "address",
          "name": "from",
          "type": "address"
        },
        {
          "indexed": true,
          "internalType": "address",
          "name": "to",
          "type": "address"
        },
        {
          "indexed": false,
          "internalType": "uint256",
          "name": "value",
          "type": "uint256"
        }
      ],
      "name": "Transfer",
      "type": "event"
    },
    {
      "inputs": [
        {
          "internalType": "address",
          "name": "owner",
          "type": "address"
        },
        {
          "internalType": "address",
          "name": "spender",
          "type": "address"
        }
      ],
      "name": "allowance",
      "outputs": [
        {
          "internalType": "uint256",
          "name": "",
          "type": "uint256"
        }
      ],
      "stateMutability": "view",
      "type": "function"
    },
    {
      "inputs": [
        {
          "internalType": "address",
          "name": "spender",
          "type": "address"
        },
        {
          "internalType": "uint256",
          "name": "value",
          "type": "uint256"
        }
      ],
      "name": "approve",
      "outputs": [
        {
          "internalType": "bool",
          "name": "",
          "type": "bool"
        }
      ],
      "stateMutability": "nonpayable",
      "type": "function"
    },
    {
      "inputs": [
        {
          "internalType": "address",
          "name": "account",
          "type": "address"
        }
      ],
      "name": "balanceOf",
      "outputs": [
        {
          "internalType": "uint256",
          "name": "",
          "type": "uint256"
        }
      ],
      "stateMutability": "view",
      "type": "function"
    },
    {
      "inputs": [
        {
          "internalType": "uint256",
          "name": "value",
          "type": "uint256"
        }
      ],
      "name": "burn",
      "outputs": [],
      "stateMutability": "nonpayable",
      "type": "function"
    },
    {
      "inputs": [
        {
          "internalType": "address",
          "name": "account",
          "type": "address"
        },
        {
          "internalType": "uint256",
          "name": "value",
          "type": "uint256"
        }
      ],
      "name": "burnFrom",
      "outputs": [],
      "stateMutability": "nonpayable",
      "type": "function"
    },
    {
      "inputs": [],
      "name": "decimals",
      "outputs": [
        {
          "internalType": "uint8",
          "name": "",
          "type": "uint8"
        }
      ],
      "stateMutability": "view",
      "type": "function"
    },
    {
      "inputs": [
        {
          "internalType": "address",
          "name": "to",
          "type": "address"
        },
        {
          "internalType": "uint256",
          "name": "amount",
          "type": "uint256"
        }
      ],
      "name": "mintReward",
      "outputs": [],
      "stateMutability": "nonpayable",
      "type": "function"
    },
    {
      "inputs": [],
      "name": "name",
      "outputs": [
        {
          "internalType": "string",
          "name": "",
          "type": "string"
        }
      ],
      "stateMutability": "view",
      "type": "function"
    },
    {
      "inputs": [],
      "name": "owner",
      "outputs": [
        {
          "internalType": "address",
          "name": "",
          "type": "address"
        }
      ],
      "stateMutability": "view",
      "type": "function"
    },
    {
      "inputs": [],
      "name": "renounceOwnership",
      "outputs": [],
      "stateMutability": "nonpayable",
      "type": "function"
    },
    {
      "inputs": [],
      "name": "symbol",
      "outputs": [
        {
          "internalType": "string",
          "name": "",
          "type": "string"
        }
      ],
      "stateMutability": "view",
      "type": "function"
    },
    {
      "inputs": [],
      "name": "totalSupply",
      "outputs": [
        {
          "internalType": "uint256",
          "name": "",
          "type": "uint256"
        }
      ],
      "stateMutability": "view",
      "type": "function"
    },
    {
      "inputs": [
        {
          "internalType": "address",
          "name": "to",
          "type": "address"
        },
        {
          "internalType": "uint256",
          "name": "value",
          "type": "uint256"
        }
      ],
      "name": "transfer",
      "outputs": [
        {
          "internalType": "bool",
          "name": "",
          "type": "bool"
        }
      ],
      "stateMutability": "nonpayable",
      "type": "function"
    },
    {
      "inputs": [
        {
          "internalType": "address",
          "name": "from",
          "type": "address"
        },
        {
          "internalType": "address",
          "name": "to",
          "type": "address"
        },
        {
          "internalType": "uint256",
          "name": "value",
          "type": "uint256"
        }
      ],
      "name": "transferFrom",
      "outputs": [
        {
          "internalType": "bool",
          "name": "",
          "type": "bool"
        }
      ],
      "stateMutability": "nonpayable",
      "type": "function"
    },
    {
      "inputs": [
        {
          "internalType": "address",
          "name": "newOwner",
          "type": "address"
        }
      ],
      "name": "transferOwnership",
      "outputs": [],
      "stateMutability": "nonpayable",
      "type": "function"
    }
  ],
  "bytecode": "0x60806040523480156200001157600080fd5b50336040518060400160405280600c81526020017f47726964466f72636520414900000000000000000000000000000000000000008152506040518060400160405280600481526020017f4752494400000000000000000000000000000000000000000000000000000000815250816003908162000090919062000777565b508060049081620000a2919062000777565b505050600073ffffffffffffffffffffffffffffffffffffffff168173ffffffffffffffffffffffffffffffffffffffff16036200011a5760006040517f1e4fbdf7000000000000000000000000000000000000000000000000000000008152600401620001119190620008a3565b60405180910390fd5b6200012b816200017160201b60201c565b506200016b33620001416200023760201b60201c565b600a6200014f919062000a50565b620f42406200015f919062000aa1565b6200024060201b60201c565b62000b92565b6000600560009054906101000a900473ffffffffffffffffffffffffffffffffffffffff16905081600560006101000a81548173ffffffffffffffffffffffffffffffffffffffff021916908373ffffffffffffffffffffffffffffffffffffffff1602179055508173ffffffffffffffffffffffffffffffffffffffff168173ffffffffffffffffffffffffffffffffffffffff167f8be0079c531659141344cd1fd0a4f28419497f9722a3daafe3b4186f6b6457e060405160405180910390a35050565b60006012905090565b600073ffffffffffffffffffffffffffffffffffffffff168273ffffffffffffffffffffffffffffffffffffffff1603620002b55760006040517fec442f05000000000000000000000000000000000000000000000000000000008152600401620002ac9190620008a3565b60405180910390fd5b620002c960008383620002cd60201b60201c565b5050565b600073ffffffffffffffffffffffffffffffffffffffff168373ffffffffffffffffffffffffffffffffffffffff16036200032357806002600082825462000316919062000aec565b92505081905550620003f9565b60008060008573ffffffffffffffffffffffffffffffffffffffff1673ffffffffffffffffffffffffffffffffffffffff16815260200190815260200160002054905081811015620003b2578381836040517fe450d38c000000000000000000000000000000000000000000000000000000008152600401620003a99392919062000b38565b60405180910390fd5b8181036000808673ffffffffffffffffffffffffffffffffffffffff1673ffffffffffffffffffffffffffffffffffffffff16815260200190815260200160002081905550505b600073ffffffffffffffffffffffffffffffffffffffff168273ffffffffffffffffffffffffffffffffffffffff160362000444578060026000828254039250508190555062000491565b806000808473ffffffffffffffffffffffffffffffffffffffff1673ffffffffffffffffffffffffffffffffffffffff168152602001908152602001600020600082825401925050819055505b8173ffffffffffffffffffffffffffffffffffffffff168373ffffffffffffffffffffffffffffffffffffffff167fddf252ad1be2c89b69c2b068fc378daa952ba7f163c4a11628f55a4df523b3ef83604051620004f0919062000b75565b60405180910390a3505050565b600081519050919050565b7f4e487b7100000000000000000000000000000000000000000000000000000000600052604160045260246000fd5b7f4e487b7100000000000000000000000000000000000000000000000000000000600052602260045260246000fd5b600060028204905060018216806200057f57607f821691505b60208210810362000595576200059462000537565b5b50919050565b60008190508160005260206000209050919050565b60006020601f8301049050919050565b600082821b905092915050565b600060088302620005ff7fffffffffffffffffffffffffffffffffffffffffffffffffffffffffffffffff82620005c0565b6200060b8683620005c0565b95508019841693508086168417925050509392505050565b6000819050919050565b6000819050919050565b600062000658620006526200064c8462000623565b6200062d565b62000623565b9050919050565b6000819050919050565b620006748362000637565b6200068c62000683826200065f565b848454620005cd565b825550505050565b600090565b620006a362000694565b620006b081848462000669565b505050565b5b81811015620006d857620006cc60008262000699565b600181019050620006b6565b5050565b601f8211156200072757620006f1816200059b565b620006fc84620005b0565b810160208510156200070c578190505b620007246200071b85620005b0565b830182620006b5565b50505b505050565b600082821c905092915050565b60006200074c600019846008026200072c565b1980831691505092915050565b600062000767838362000739565b9150826002028217905092915050565b6200078282620004fd565b67ffffffffffffffff8111156200079e576200079d62000508565b5b620007aa825462000566565b620007b7828285620006dc565b600060209050601f831160018114620007ef5760008415620007da578287015190505b620007e6858262000759565b86555062000856565b601f198416620007ff866200059b565b60005b82811015620008295784890151825560018201915060208501945060208101905062000802565b8683101562000849578489015162000845601f89168262000739565b8355505b6001600288020188555050505b505050505050565b600073ffffffffffffffffffffffffffffffffffffffff82169050919050565b60006200088b826200085e565b9050919050565b6200089d816200087e565b82525050565b6000602082019050620008ba600083018462000892565b92915050565b7f4e487b7100000000000000000000000000000000000000000000000000000000600052601160045260246000fd5b60008160011c9050919050565b6000808291508390505b60018511156200094e57808604811115620009265762000925620008c0565b5b6001851615620009365780820291505b80810290506200094685620008ef565b945062000906565b94509492505050565b60008262000969576001905062000a3c565b8162000979576000905062000a3c565b81600181146200099257600281146200099d57620009d3565b600191505062000a3c565b60ff841115620009b257620009b1620008c0565b5b8360020a915084821115620009cc57620009cb620008c0565b5b5062000a3c565b5060208310610133831016604e8410600b841016171562000a0d5782820a90508381111562000a075762000a06620008c0565b5b62000a3c565b62000a1c8484846001620008fc565b9250905081840481111562000a365762000a35620008c0565b5b81810290505b9392505050565b600060ff82169050919050565b600062000a5d8262000623565b915062000a6a8362000a43565b925062000a997fffffffffffffffffffffffffffffffffffffffffffffffffffffffffffffffff848462000957565b905092915050565b600062000aae8262000623565b915062000abb8362000623565b925082820262000acb8162000623565b9150828204841483151762000ae55762000ae4620008c0565b5b5092915050565b600062000af98262000623565b915062000b068362000623565b925082820190508082111562000b215762000b20620008c0565b5b92915050565b62000b328162000623565b82525050565b600060608201905062000b4f600083018662000892565b62000b5e602083018562000b27565b62000b6d604083018462000b27565b949350505050565b600060208201905062000b8c600083018462000b27565b92915050565b6112dc8062000ba26000396000f3fe608060405234801561001057600080fd5b50600436106100f55760003560e01c8063715018a6116100975780639a49090e116100665780639a49090e14610262578063a9059cbb1461027e578063dd62ed3e146102ae578063f2fde38b146102de576100f5565b8063715018a61461020057806379cc67901461020a5780638da5cb5b1461022657806395d89b4114610244576100f5565b806323b872dd116100d357806323b872dd14610166578063313ce5671461019657806342966c68146101b457806370a08231146101d0576100f5565b806306fdde03146100fa578063095ea7b31461011857806318160ddd14610148575b600080fd5b6101026102fa565b60405161010f9190610f03565b60405180910390f35b610132600480360381019061012d9190610fbe565b61038c565b60405161013f9190611019565b60405180910390f35b6101506103af565b60405161015d9190611043565b60405180910390f35b610180600480360381019061017b919061105e565b6103b9565b60405161018d9190611019565b60405180910390f35b61019e6103e8565b6040516101ab91906110cd565b60405180910390f35b6101ce60048036038101906101c991906110e8565b6103f1565b005b6101ea60048036038101906101e59190611115565b610405565b6040516101f79190611043565b60405180910390f35b61020861044d565b005b610224600480360381019061021f9190610fbe565b610461565b005b61022e610481565b60405161023b9190611151565b60405180910390f35b61024c6104ab565b6040516102599190610f03565b60405180910390f35b61027c60048036038101906102779190610fbe565b61053d565b005b61029860048036038101906102939190610fbe565b610553565b6040516102a59190611019565b60405180910390f35b6102c860048036038101906102c3919061116c565b610576565b6040516102d59190611043565b60405180910390f35b6102f860048036038101906102f39190611115565b6105fd565b005b606060038054610309906111db565b80601f0160208091040260200160405190810160405280929190818152602001828054610335906111db565b80156103825780601f1061035757610100808354040283529160200191610382565b820191906000526020600020905b81548152906001019060200180831161036557829003601f168201915b5050505050905090565b600080610397610683565b90506103a481858561068b565b600191505092915050565b6000600254905090565b6000806103c4610683565b90506103d185828561069d565b6103dc858585610732565b60019150509392505050565b60006012905090565b6104026103fc610683565b82610826565b50565b60008060008373ffffffffffffffffffffffffffffffffffffffff1673ffffffffffffffffffffffffffffffffffffffff168152602001908152602001600020549050919050565b6104556108a8565b61045f600061092f565b565b6104738261046d610683565b8361069d565b61047d8282610826565b5050565b6000600560009054906101000a900473ffffffffffffffffffffffffffffffffffffffff16905090565b6060600480546104ba906111db565b80601f01602080910402602001604051908101604052809291908181526020018280546104e6906111db565b80156105335780601f1061050857610100808354040283529160200191610533565b820191906000526020600020905b81548152906001019060200180831161051657829003601f168201915b5050505050905090565b6105456108a8565b61054f82826109f5565b5050565b60008061055e610683565b905061056b818585610732565b600191505092915050565b6000600160008473ffffffffffffffffffffffffffffffffffffffff1673ffffffffffffffffffffffffffffffffffffffff16815260200190815260200160002060008373ffffffffffffffffffffffffffffffffffffffff1673ffffffffffffffffffffffffffffffffffffffff16815260200190815260200160002054905092915050565b6106056108a8565b600073ffffffffffffffffffffffffffffffffffffffff168173ffffffffffffffffffffffffffffffffffffffff16036106775760006040517f1e4fbdf700000000000000000000000000000000000000000000000000000000815260040161066e9190611151565b60405180910390fd5b6106808161092f565b50565b600033905090565b6106988383836001610a77565b505050565b60006106a98484610576565b90507fffffffffffffffffffffffffffffffffffffffffffffffffffffffffffffffff81101561072c578181101561071c578281836040517ffb8f41b20000000000000000000000000000000000000000000000000000000081526004016107139392919061120c565b60405180910390fd5b61072b84848484036000610a77565b5b50505050565b600073ffffffffffffffffffffffffffffffffffffffff168373ffffffffffffffffffffffffffffffffffffffff16036107a45760006040517f96c6fd1e00000000000000000000000000000000000000000000000000000000815260040161079b9190611151565b60405180910390fd5b600073ffffffffffffffffffffffffffffffffffffffff168273ffffffffffffffffffffffffffffffffffffffff16036108165760006040517fec442f0500000000000000000000000000000000000000000000000000000000815260040161080d9190611151565b60405180910390fd5b610821838383610c4e565b505050565b600073ffffffffffffffffffffffffffffffffffffffff168273ffffffffffffffffffffffffffffffffffffffff16036108985760006040517f96c6fd1e00000000000000000000000000000000000000000000000000000000815260040161088f9190611151565b60405180910390fd5b6108a482600083610c4e565b5050565b6108b0610683565b73ffffffffffffffffffffffffffffffffffffffff166108ce610481565b73ffffffffffffffffffffffffffffffffffffffff161461092d576108f1610683565b6040517f118cdaa70000000000000000000000000000000000000000000000000000000081526004016109249190611151565b60405180910390fd5b565b6000600560009054906101000a900473ffffffffffffffffffffffffffffffffffffffff16905081600560006101000a81548173ffffffffffffffffffffffffffffffffffffffff021916908373ffffffffffffffffffffffffffffffffffffffff1602179055508173ffffffffffffffffffffffffffffffffffffffff168173ffffffffffffffffffffffffffffffffffffffff167f8be0079c531659141344cd1fd0a4f28419497f9722a3daafe3b4186f6b6457e060405160405180910390a35050565b600073ffffffffffffffffffffffffffffffffffffffff168273ffffffffffffffffffffffffffffffffffffffff1603610a675760006040517fec442f05000000000000000000000000000000000000000000000000000000008152600401610a5e9190611151565b60405180910390fd5b610a7360008383610c4e565b5050565b600073ffffffffffffffffffffffffffffffffffffffff168473ffffffffffffffffffffffffffffffffffffffff1603610ae95760006040517fe602df05000000000000000000000000000000000000000000000000000000008152600401610ae09190611151565b60405180910390fd5b600073ffffffffffffffffffffffffffffffffffffffff168373ffffffffffffffffffffffffffffffffffffffff1603610b5b5760006040517f94280d62000000000000000000000000000000000000000000000000000000008152600401610b529190611151565b60405180910390fd5b81600160008673ffffffffffffffffffffffffffffffffffffffff1673ffffffffffffffffffffffffffffffffffffffff16815260200190815260200160002060008573ffffffffffffffffffffffffffffffffffffffff1673ffffffffffffffffffffffffffffffffffffffff168152602001908152602001600020819055508015610c48578273ffffffffffffffffffffffffffffffffffffffff168473ffffffffffffffffffffffffffffffffffffffff167f8c5be1e5ebec7d5bd14f71427d1e84f3dd0314c0f7b2291e5b200ac8c7c3b92584604051610c3f9190611043565b60405180910390a35b50505050565b600073ffffffffffffffffffffffffffffffffffffffff168373ffffffffffffffffffffffffffffffffffffffff1603610ca0578060026000828254610c949190611272565b92505081905550610d73565b60008060008573ffffffffffffffffffffffffffffffffffffffff1673ffffffffffffffffffffffffffffffffffffffff16815260200190815260200160002054905081811015610d2c578381836040517fe450d38c000000000000000000000000000000000000000000000000000000008152600401610d239392919061120c565b60405180910390fd5b8181036000808673ffffffffffffffffffffffffffffffffffffffff1673ffffffffffffffffffffffffffffffffffffffff16815260200190815260200160002081905550505b600073ffffffffffffffffffffffffffffffffffffffff168273ffffffffffffffffffffffffffffffffffffffff1603610dbc5780600260008282540392505081905550610e09565b806000808473ffffffffffffffffffffffffffffffffffffffff1673ffffffffffffffffffffffffffffffffffffffff168152602001908152602001600020600082825401925050819055505b8173ffffffffffffffffffffffffffffffffffffffff168373ffffffffffffffffffffffffffffffffffffffff167fddf252ad1be2c89b69c2b068fc378daa952ba7f163c4a11628f55a4df523b3ef83604051610e669190611043565b60405180910390a3505050565b600081519050919050565b600082825260208201905092915050565b60005b83811015610ead578082015181840152602081019050610e92565b60008484015250505050565b6000601f19601f8301169050919050565b6000610ed582610e73565b610edf8185610e7e565b9350610eef818560208601610e8f565b610ef881610eb9565b840191505092915050565b60006020820190508181036000830152610f1d8184610eca565b905092915050565b600080fd5b600073ffffffffffffffffffffffffffffffffffffffff82169050919050565b6000610f5582610f2a565b9050919050565b610f6581610f4a565b8114610f7057600080fd5b50565b600081359050610f8281610f5c565b92915050565b6000819050919050565b610f9b81610f88565b8114610fa657600080fd5b50565b600081359050610fb881610f92565b92915050565b60008060408385031215610fd557610fd4610f25565b5b6000610fe385828601610f73565b9250506020610ff485828601610fa9565b9150509250929050565b60008115159050919050565b61101381610ffe565b82525050565b600060208201905061102e600083018461100a565b92915050565b61103d81610f88565b82525050565b60006020820190506110586000830184611034565b92915050565b60008060006060848603121561107757611076610f25565b5b600061108586828701610f73565b935050602061109686828701610f73565b92505060406110a786828701610fa9565b9150509250925092565b600060ff82169050919050565b6110c7816110b1565b82525050565b60006020820190506110e260008301846110be565b92915050565b6000602082840312156110fe576110fd610f25565b5b600061110c84828501610fa9565b91505092915050565b60006020828403121561112b5761112a610f25565b5b600061113984828501610f73565b91505092915050565b61114b81610f4a565b82525050565b60006020820190506111666000830184611142565b92915050565b6000806040838503121561118357611182610f25565b5b600061119185828601610f73565b92505060206111a285828601610f73565b9150509250929050565b7f4e487b7100000000000000000000000000000000000000000000000000000000600052602260045260246000fd5b600060028204905060018216806111f357607f821691505b602082108103611206576112056111ac565b5b50919050565b60006060820190506112216000830186611142565b61122e6020830185611034565b61123b6040830184611034565b949350505050565b7f4e487b7100000000000000000000000000000000000000000000000000000000600052601160045260246000fd5b600061127d82610f88565b915061128883610f88565b92508282019050808211156112a05761129f611243565b5b9291505056fea26469706673582212201cc8fe8874a18caad6448ff6d6e5d07b6e1ff3c161ccb4418db571c0bbcd8b7e64736f6c63430008140033",
  "linkReferences": {},
  "deployedLinkReferences": {}
}